:020000040000FA
:020000000528D1
:06000A0083160C30850096
:10001000003086008312850186010E288F010508B5
:100020008F0010300F061B203F3C03192D28063C83
:1000300003195D280E288207803480348034803490
:1000400080343F345B34803480340634CF348034A1
:100050008034803480348034803438304F200C3009
:100060004F2001308C010C083E204D208C0A0F30AF
:100070000C06031D332801304F20322882074834F4
:100080006F346C34613420344D3475346E346434E0
:100090006F34213420343B342934051450280512A0
:1000A0008600851455208510552000308D000030C5
:1000B0008E008E0B59288D0B5728383080200C303D
:1000C000802001308C010C086E207E208C0A0F30BD
:1000D0000C06031D63280130802062288207483403
:1000E00065346C346C346F34203457346F3472346C
:1000F0006C346434213420343B3429340514812891
:1001000005128600851486208510862000308D001B
:0E01100000308E008E0B8A288D0B8828080088
:02400E00F13F80
:00000001FF
