:020000040000FA
:020000001728BF
:06000A0082070000202C1B
:10001000312C422C8F2C4D2C582C632C952C6E2C73
:10002000792C842C9B2CAD2C132CA72CA12C860175
:1000300087018801831606309F008501F030860015
:100040008701880181138312B3012030840040109E
:100050004114421045104610471048100130D0009E
:100060000730D1000830D2000930D300DC01DD01B7
:10007000B301CF203C28F2280710013088008714F4
:1000800000008710E9204210411043104410451031
:100090004610471048104914B30120308400401026
:1000A00041308800BF2044308800BF204D30880098
:1000B000BF2049308800BF204E308800BF203A3032
:1000C0008800BF2032213B280710013088008714A8
:1000D00000008710E920B301203084004010421452
:1000E000411043104410451046104710481041304D
:1000F0008800BF2044308800BF204D308800BF20DA
:1001000049308800BF204E308800BF203A30880038
:10011000BF2030308800BF2020308800BF205530FD
:100120008800BF2053308800BF2045308800BF20A2
:1001300052308800BF203A308800BF20313088001C
:10014000BF202D308800BF2032308800BF2007102C
:10015000C0308800B82053308800BF204530880068
:10016000BF204C308800BF203A308800BF20F228E2
:100170000710BB2008008714C6208710080007144A
:10018000C22008008714C620871008001430B5006C
:100190001430B600B60BCA28B50BC82808000710E3
:1001A00001308800DE200C308800DE203C308800E2
:1001B000DE20071408000714DE2008008714E92059
:1001C000E9208710E92008000710C0308800DE20F1
:1001D000F228FF30B200FF30B100B10BED28B20BB6
:1001E000EB280800B001B00A0E3086000000061EA1
:1001F0000A29B00A861E0A29B00A061F0A29B00A6F
:10020000861F0A29B00A113030060319F228031498
:10021000860DF728061E0A29861E0C29061F0E29A0
:10022000861F1029300805284018992AB30A103073
:1002300033060319E4282030330603193828F2283E
:100240002008D4002108D5002208D6002308D700B2
:1002500012292008D8002108D9002208DA00230832
:10026000DB0012290130D0000730D1000830D20065
:100270000930D300080007100130880087140000FF
:100280008710E920B301203084004010B0014210F3
:1002900041104314441045104610471048104910AF
:1002A00055308800BF2053308800BF20453088007B
:1002B000BF2052308800BF2031308800BF2020305E
:1002C0008800BF204F308800BF2050308800BF20FA
:1002D00028308800BF2031308800BF202D308800B2
:1002E000BF2032308800BF2029308800BF2007108F
:1002F000C0308800B82053308800BF2045308800C7
:10030000BF204C308800BF203A308800BF203B28F7
:10031000071001308800871400008710E920B3011E
:10032000203084004010B0014210411043104414AA
:100330004510461047104810491055308800BF201E
:1003400053308800BF2045308800BF2052308800DD
:10035000BF2032308800BF2020308800BF204F30BF
:100360008800BF2050308800BF2028308800BF2080
:1003700031308800BF202D308800BF203230880007
:10038000BF2029308800BF200710C0308800B82067
:1003900053308800BF2045308800BF204C30880093
:1003A000BF203A308800BF203B28491549193C2816
:1003B0004911071001308800871400008710E920D8
:1003C000B301203084004010B001421041104310AE
:1003D0004410451046104714481049104E3088000C
:1003E000BF2055308800BF2045308800BF205630E0
:1003F0008800BF2041308800BF203A308800BF20ED
:100400003B28C915C9193C28C911071001308800BB
:10041000871400008710E920B301203084004010C9
:10042000B0014210411043104410451046104710CF
:10043000481449104E308800BF2055308800BF2036
:1004400045308800BF2056308800BF2041308800EA
:10045000BF203A308800BF203B28031103305C02E4
:100460000319262B0710013088008714000087101D
:10047000E920B301203084004010B0014210411047
:10048000431044104514461047104810491054308A
:100490008800BF2045308800BF2043308800BF203F
:1004A0004C308800BF2045308800BF204130880094
:1004B000BF203A308800BF203B28031103305D0283
:1004C0000319262B071001308800871400008710BD
:1004D000E920B301203084004010B00142104110E7
:1004E000431044104510461447104810491054302A
:1004F0008800BF2045308800BF2043308800BF20DF
:100500004C308800BF2045308800BF204130880033
:10051000BF203A308800BF203B2869308800DB20AC
:10052000E9204210411447183B2948188829E42241
:100530003C2843308800DB20E92042144110A522EA
:100540004919D829C919042A642849190800C91960
:1005500008004718080048180800071001308800F4
:10056000871400008710E92020308800BF20203049
:100570008800BF2020308800BF2020308800BF20A6
:1005800041308800BF2044308800BF2045308800BB
:10059000BF204C308800BF2041308800BF204E3043
:1005A0008800BF2054308800BF2045308800BF201D
:1005B00021308800BF200715E920E920E920E92043
:1005C000E920E9200711080007100130880087148E
:1005D00000008710E92020308800BF2020308800EC
:1005E000BF2020308800BF2049308800BF204E3017
:1005F0008800BF2043308800BF204F308800BF20D4
:1006000052308800BF2052308800BF20453088001B
:10061000BF2043308800BF2054308800BF204130C5
:100620008800BF2021308800BF20E920E920E92090
:10063000E920E920E9204518DC0A4618DD0A4518BA
:100640002D2A46185D2A49183C286428DC01DD0162
:10065000071001308800871400008710E92020303F
:100660008800BF2020308800BF2020308800BF20B5
:1006700042308800BF204C308800BF204F308800B7
:10068000BF2051308800BF2055308800BF20453042
:100690008800BF2041308800BF2044308800BF2040
:1006A0004F308800BF2021308800BF20E920E9209A
:1006B000E920E920E920E920E920E920E920E920F2
:1006C000E920E920E920E920E920E920E920E920E2
:1006D000E920E920E920E920E920E920E920E920D2
:1006E000E920E920E920E920E920E920E920E920C2
:1006F000E920E920E920E920E920E920E920E920B2
:10070000E920E920E92064284918902B4518A52BF9
:100710004618BA2B491832214718D92B4818E22B12
:10072000031150082002031D8D2A031151082102D4
:10073000031D8D2A031152082202031D8D2A031165
:1007400053082302031D8D2ACE2B031154082002C7
:10075000031D8D2A031155082102031D8D2A031143
:1007600056082202031D8D2A031157082302031D78
:100770008D2ACE2B031158082002031D8D2A031148
:1007800059082102031D8D2A03115A082202031D54
:100790008D2A03115B082302031D8D2A40140800D3
:1007A0002008D0002108D1002208D2002308D3005D
:1007B00008002008D4002108D5002208D60023080C
:1007C000D700CE2B2008D8002108D9002208DA0053
:1007D0002308DB00CE2B00308000840A08000130A3
:1007E0008000840A080002308000840A0800033078
:1007F0008000840A080004308000840A0800053064
:100800008000840A080006308000840A080007304F
:100810008000840A080008308000840A080009303B
:100820008000840A08002A308800DB20421817283C
:10083000EB230311B30A073033020319842314296D
:100840002A308800DB2042183B2943182D2A4418FF
:100850005D2AEF230311B30A0730330203198423FF
:1008600014292A308800DB20421888294318D5290A
:100870004418012AF3230311B30A07303302031982
:10088000842314292A308800DB20F7230311B30ABC
:10089000073033020319842314292A308800DB200F
:1008A000FB230311B30A07303302031984231429ED
:1008B0002A308800DB20FF230311B30A07303302FC
:1008C0000319842314292A308800DB200324031110
:1008D000B30A073033020319842314292A3088000D
:1008E000DB2007240311B30A0730330203198423E2
:1008F00014292A308800DB200B240311B30A0730A7
:1009000033020319842314292A308800DB200F24A2
:100910000311B30A073033020319842314290A3060
:10092000850041308800DB2008000B308500423014
:100930008800DB2008000C30850043308800DB2075
:1009400008000D30850044308800DB2008000E30A0
:10095000850045308800DB2008000F3085004630D8
:060960008800DB20080006
:02400E00713F00
:00000001FF
